:020000040800F2
:10000000800B012099000108655401085500010882
:10001000590001085D0001086100010800000000AE
:100020000000000000000000000000006500010862
:100030000908010800000000350101089166010867
:10004000B3000108B3000108B3000108B3000108C0
:10005000B3000108B3000108B3000108B3000108B0
:10006000B3000108B3000108B300010889060108C4
:10007000A1060108B9060108D1060108E906010830
:100080000107010819070108B3000108000000007A
:10009000000000000000000000000000B3000108A4
:1000A000B3000108B3000108B3000108B300010860
:1000B000B3000108B3000108B3000108B300010850
:1000C000B3000108B3000108B3000108B300010840
:1000D000B3000108B3000108356B010800000000FF
:1000E000B3000108B3000108B300010800000000DC
:1000F00000000000000000000000000031070108BF
:1001000000000000B3000108B3000108B3000108BB
:1001100000000000000000000000000000000000DF
:1001200049070108610701087907010891070108DB
:10013000A907010800000000000000000000000006
:1001400000000000000000000000000069540108E9
:10015000C1070108D9070108F1070108B300010828
:10016000B3000108B3000108000000000000000017
:10017000000000000000000000000000000000007F
:1001800000000000B30001080000000000000000B3
:10019000B3000108B300010800F002F80FF036FFC9
:1001A0000AA090E8000C82448344AAF10107DA45D2
:1001B00001D10FF02BFFAFF2090EBAE80F0013F0D8
:1001C000010F18BFFB1A43F001031847400000005D
:1001D00060000000103A24BF78C878C1FAD85207EE
:1001E00024BF30C830C144BF04680C6070470000B1
:1001F0000023002400250026103A28BF78C1FBD830
:10020000520728BF30C148BF0B6070472C0200085E
:1002100000000020FC000000D401000828030008B2
:10022000FC000020840A0100F0010008000000002A
:1002300000000000000000000000000000000000BE
:1002400000000000000000000000000000000000AE
:10025000000000000000000000000000000000009E
:10026000000000000000000000000000000000008E
:10027000000000000000000000000000000000007E
:10028000000000000000000000000000000000006E
:10029000000000000000000000000000000000005E
:1002A000000000000000000000000000000000004E
:1002B000000000000000000000000000000000003E
:1002C000000000000000000000000000000000002E
:1002D000000000000000000000000000000000001E
:1002E00000000000000000000024F40000000000F6
:1002F00000000000000000000000000000000000FE
:1003000000000000000000000000000000000000ED
:1003100000000000000000000000000000000000DD
:080320000000000000000000D5
:020000040801F1
:100000001FB507F060FA1FBD10B510BD00F056FA1D
:100010001146FFF7F5FF06F009FF00F074FA03B48C
:10002000FFF7F2FF03BC00F07BFA000003464FF03D
:1000300000021EF0040F0CBFEFF30880EFF30980FD
:100040001EF0100F06BF20ED108AD143114620E9A3
:10005000F00F18470C48E9E70C48E7E70C48E5E7DC
:100060000C48E3E71EF0040F0CBFEFF30882EFF338
:1000700009821168506804B58847BDE804401060E3
:10008000704700DF704700BFC548010831540108C0
:1000900079060108116C01080948804709480047A2
:1000A000FEE7FEE7FEE7FEE7FEE7FEE7FEE7FEE728
:1000B000FEE7FEE704480549034A054B7047000088
:1000C000356701089901000880030120800B012099
:1000D000800301201948026804B503F093FEBDE8CF
:1000E0000440002808BF7047EFF309801EF0100F8E
:1000F00008BF20ED108A20E9F04F10600F4800681B
:100100000068B0E8F04F1EF0100F08BFB0EC108A86
:1001100080F3098870470A480A4901604FF00000DF
:1001200080F31488054909680868B0E8F04F80F347
:100130000988704702480068004700BFF4000020AB
:10014000F8000020D500010853EA020C00F0698095
:100150002DE9F04B4FF00006002B1FBFB3FA83F5DB
:1001600003FA05F424FA05F65E4012BF1643B2FA0C
:1001700082F502FA05F4C5F120051EBF22FA05FC3E
:1001800044EA0C04203556EA044C4FEA144418BFE4
:10019000641C4FF000084FF00009904271EB030C13
:1001A00039D3002919BFB1FA81F701FA07F6B0FA7D
:1001B00080F700FA07F6C7F120071EBF20FA07FCF8
:1001C00046EA0C062037B6FBF4FCA7EB0507103F08
:1001D00007F01F0BCBF120060CFA0BFB2CFA06F6EE
:1001E00044BFB3460026202FA4BF5E464FF0000B4D
:1001F0005BEA060C08BF4FF0010B19EB0B09ABFBD8
:10020000027C48EB0608C01B06FB02CC0BFB03CCB0
:1002100071EB0C01C1E70B46024641464846BDE87A
:10022000F08B13B54FF000004FF00001AFF30080EA
:10023000BDE81C407047B2F120030AD5C2F120038B
:1002400001FA02F120FA03F300FA02F041EA030195
:10025000704700FA03F14FF000007047B2F120033D
:100260000AD5C2F1200320FA02F001FA03F321FAC1
:1002700002F140EA0300704721FA03F04FF0000159
:10028000704710B54C1084EA530404D54042C1F1C4
:10029000000138BF491E1B4204D55242C3F100037E
:1002A00038BF5B1EFFF750FF14F0804F04D0404270
:1002B000C1F1000138BF491E14F0004F04D0524272
:1002C000C3F1000338BF5B1E10BD431A28BF9A421A
:1002D00040F27D80032A1044114440F2268010F041
:1002E000030F1EBF11F8013D521E00F8013D10F032
:1002F000030F7FF4F6AF11F0030300F03B80083AE0
:10030000C0F00B8051F8043D083A51F804CD40F894
:10031000043D40F804CDFFF7F3BF121D5CBF51F858
:10032000043D40F8043DAFF30080D20724BF11F82C
:10033000013D11F801CD48BF11F8012C24BF00F890
:10034000013D00F801CD48BF00F8012C7047431A69
:1003500028BF9A4240F28080104410F0030F1144ED
:100360001EBF11F8013D521E00F8013D10F0030FB1
:100370007FF4F6AF103AC0F00A8010B531E918509A
:10038000103A20E91850BFF4F9AFBDE81040530708
:1003900024BF31E9081020E9081044BF51F8043D9A
:1003A00040F8043D12F0030F08BF7047D20728BF82
:1003B00031F8023D48BF11F8012C28BF20F8023D5A
:1003C00048BF00F8012C7047704770477047032AF8
:1003D00040F2308010F0030C00F0158011F8013B62
:1003E000BCF1020F624498BF11F801CB00F8013B49
:1003F00038BF11F8013BA2F1040298BF00F801CB0D
:1004000038BF00F8013B11F0030300F02580083AE3
:10041000C0F0088051F8043B083A51F804CBA0E83A
:100420000810F5E7121D5CBF51F8043B40F8043B8F
:10043000AFF30080D20724BF11F8013B11F801CBC4
:1004400048BF11F8012B24BF00F8013B00F801CB95
:1004500048BF00F8012B704710B5203AC0F00B8060
:10046000B1E81850203AA0E81850B1E81850A0E8B8
:100470001850BFF4F5AF5FEA027C24BFB1E8185012
:10048000A0E8185044BF18C918C0BDE810405FEA82
:10049000827C24BF51F8043B40F8043B08BF7047FE
:1004A000D20728BF31F8023B48BF11F8012B28BF03
:1004B00020F8023B48BF00F8012B7047754600F05A
:1004C0002BF8AE4605006946534620F007008546E6
:1004D00018B020B5FFF7EEFDBDE820404FF0000654
:1004E0004FF000074FF000084FF0000B21F007011C
:1004F000AC46ACE8C009ACE8C009ACE8C009ACE85F
:10050000C0098D46704710B50446AFF30080204601
:10051000BDE81040FFF783BD00487047200301206D
:1005200001491820ABBEFEE726000200704700001C
:100530004A4800B5016883B041F0010101600168DB
:1005400041F0020101604648016821F44021016048
:10055000011D0A6822F400720A600A1D136823F460
:1005600040231360131DD3F800C02CF4402C4CF42E
:10057000802CC3F800C0D0F800C02CF4405CC0F858
:1005800000C0D1F800C02CF0400CC1F800C0D2F877
:1005900000C02CF4405CC2F800C0D3F800C02CF4BA
:1005A000405C4CF4805CC3F800C0D0F800C02CF470
:1005B000403CC0F800C0086820F4807008601068F3
:1005C00020F440301060186820F4403040F480304F
:1005D0001860244B186820F003001860586820F059
:1005E00001005860986820F003009860D86820F0F7
:1005F000030040F00100D8601B4801900090019971
:100600000120491C009A801C521E521E00928842F2
:10061000F8DB1648016811F4007F1CBF016811F077
:10062000400F11D0006810F4807F1CBF186910F0D3
:10063000010F09D00E494FF000600860BFF34F8FE3
:10064000BFF36F8F03B000BD0A48016881F30888CB
:10065000002181F3148840688047FEE7303802406B
:10066000000402400000024040420F00100402401B
:1006700008ED00E00000FF1F0A460146014800F0B7
:1006800053FAFEE708010020014948680968084755
:100690001C000020014A5160106070471C000020BF
:1006A000014948680968084724000020014A516050
:1006B0001060704724000020014948680968084715
:1006C0002C000020014A5160106070472C0000206F
:1006D000014948680968084734000020014A516010
:1006E00010607047340000200149486809680847D5
:1006F0003C000020014A5160106070473C0000201F
:10070000014948680968084744000020014A5160CF
:100710001060704744000020014948680968084794
:100720004C000020014A5160106070474C000020CE
:10073000014948680968084754000020014A51608F
:100740001060704754000020014948680968084754
:100750005C000020014A5160106070475C0000207E
:10076000014948680968084764000020014A51604F
:100770001060704764000020014948680968084714
:100780006C000020014A5160106070476C0000202E
:10079000014948680968084774000020014A51600F
:1007A00010607047740000200149486809680847D4
:1007B0007C000020014A5160106070477C000020DE
:1007C000014948680968084784000020014A5160CF
:1007D0001060704784000020014948680968084794
:1007E0008C000020014A5160106070478C0000208E
:1007F000014948680968084794000020014A51608F
:1008000010607047940000207047000070B4D0E979
:10081000003C2CF000400024184329D0CCF30A55AA
:10082000A5F5E066CCF31300FF3E14D0002D08BF01
:10083000164D04D0164E40F48010AD19343DC2E977
:1008400000300D600CF00040204314BF4FF0FF302B
:10085000012070BC704753EA00010ED000F4002064
:1008600020430CBF6FF003006FF0020070BC7047B4
:1008700000200C60C2E90000E4E70CF000402043D7
:1008800014BF6FF00100022070BC7047CEFBFFFF69
:1008900001FCFFFF08B5074803F076FC04F07AFE80
:1008A000002001460090044B4FF40072034803F00F
:1008B00071FC08BD554F0108FEFFFF7FBD690108AF
:1008C00072B6FEE770B5074C0546206802F09AFF45
:1008D0002946054801F010FD2068BDE8704003F08E
:1008E0003BB80000E80000202003002002F0E0BD3B
:1008F0002DE9F74F8CB000230C98E0E90233C0E9F2
:100900000233C0E90433C0E90633C0E90833C0E963
:100910000A33C0E90C33C0E90E33E0E91033C0E913
:100920000233C0E90433C0E90633C0E90833C0E943
:100930000A33C0E90C33C0E90E3300F14003012053
:100940000024E3E80244401EE3E80244F8D1D2E97F
:1009500000450B6813F1400F0BDD002B50DA03F15B
:10096000400220462946FFF766FC04460D466FF01C
:100970003F035842403800F0070AC0100C990B9012
:10098000084400F108064FF0000847464FF00809F8
:10099000CAF1080B00967942382000EBC1022046CC
:1009A0002946FFF75BFCC0B220FA0AF100FA0BF00F
:1009B00041EA08017F1C06F8011B00F0FF08B9F1AD
:1009C0000109E8D1009880F808800C9800F108012E
:1009D0000B98902804DA0A5C002A08BF401CF8D063
:1009E0000C9A10600B9808300028A4BF0A5C002AFB
:1009F00008BF401EF8D00C9948600FB0BDE8F08FDA
:100A00000C984FF0900101600C984FF0FF3141605D
:100A10000FB0BDE8F08F2DE9F74F8CB000230C9894
:100A2000E0E90233C0E90233C0E90433C0E9063328
:100A3000C0E90833C0E90A33C0E90C33C0E90E331A
:100A4000E0E91033C0E90233C0E90433C0E90633FA
:100A5000C0E90833C0E90A33C0E90C33C0E90E33FA
:100A600000F1400301200024E3E80244401EE3E8D3
:100A70000244F8D1D2E900450B68002B14DA13F1D7
:100A80003F0F09DA0C98902101600C984FF0FF316C
:100A900041600FB0BDE8F08F5A4220462946FFF76B
:100AA000DDFB04460D460023D8100C990B9008443A
:100AB00003F0070900F108064FF0000847464FF021
:100AC000080AC9F1080B0096FA0020462946FFF7EC
:100AD000C5FBC0B200FA09F141EA080120FA0BF89F
:100AE0007F1C06F8011BBAF1010AEDD1009880F8CD
:100AF00008800C9800F108010B98902804DA0A5C31
:100B0000002A08BF401CF8D00C9A10600B980830DF
:100B10000028A4BF0A5C002A08BF401EF8D00C9928
:100B200048600FB0BDE8F08F002A7DD04FF0FF3253
:100B300002600A6842614A6882618A68C261CA6862
:100B400002620A6942624A6982628A69C262CA6949
:100B500002630A6AC0F884204A6AC0F888208A6A58
:100B6000C0F88C20CA6AC0F890200A6BC0F89420A4
:100B70004A6BC0F898208A6BC0F89C20CA6BC0F8FA
:100B8000A0200A6CC0F8A4204A6CC0F8A8208A6C87
:100B9000C0F8AC20CA6CC0F8B0200A6DC0F8B42010
:100BA0004A6DC0F8B8208A6DC0F8BC20CA6DC0F884
:100BB000C0200A6E42604A6E82608A6EC260CA6E4F
:100BC00002610A6F42634A6F82638A6FC263CA6FAF
:100BD0000264D1F880204264D1F884208264D1F884
:100BE0008820C264D1F88C200265D1F8902042653B
:100BF000D1F894208265D1F89820C265D1F89C2064
:100C00000266D1F8A0204266D1F8A4208266D1F80D
:100C1000A820C266D1F8AC200267D1F8B0204267A4
:100C2000D1F8B420826700E00BE0D1F8B820C267A9
:100C3000D1F8BC20C0F88020D1F8C010C0F8C41092
:100C40007047002202600A6842614A6882618A68CD
:100C5000C261CA6802620A6942624A6982628A693A
:100C6000C262CA6902630A6A42604A6A82608A6A28
:100C7000C260CA6A02610A6B42634A6B82638A6B12
:100C8000C263C96B0164704770B5074C05462068A4
:100C900002F0B8FD2946054801F0F6FB2068BDE8E2
:100CA000704002F059BE0000E80000202003002040
:100CB00070B5044600F090F90646002C04BF0120F0
:100CC00070BD022084F83500002584F83450206877
:100CD000016821F0010101602068006810F0010F37
:100CE00010D000BF00F078F9801B052805D920201E
:100CF0006065032084F8350070BD2068006810F03E
:100D0000010FEFD1216808683D4A1040D4E9012362
:100D10001A43D4E9033C43EA0C031A4363691A43B8
:100D2000A3691A43E3691A43236A1A431043626AA8
:100D3000042A03D1D4E90B231A4310430860D4F8E2
:100D400000C0DCF81400012320F00701606A40EACB
:100D50000102042837D1A16AE06A0A4318B3A669E0
:100D600056B1B6F5005F14D000291CBF0129022935
:100D700021D003291CD026E019B1012905D0022970
:100D800021D110F0807F1ED015E0B0F1C07F1AD1C4
:100D900011E081B1012907D002290CD0032908BF35
:100DA000B0F1C07F07D00EE010F0807F03D10AE0E1
:100DB00010F0807F07D04FF04000606584F8353038
:100DC0004FF0010070BDCCF8142020680D4AC1B26C
:100DD000A1F11001A2FB01210B4A4FEA11110329D5
:100DE000525CE2656FF3090088BF001D3F2191400E
:100DF000A0658160656584F83530002070BD000015
:100E00003F8010F0ABAAAAAAD87401082DE9F84FC8
:100E10006E4D6D4C00224FF001094FF0030C4FF066
:100E20000F0A05F1040E00BF0B6809FA02F6334001
:100E3000B3427DD10F7907F00307012F18BF022FAE
:100E400019D1D0F808804FEA42070CFA07FB28EACC
:100E50000B08D1F80CB00BFA07F747EA08078760D0
:100E6000476827EA06060F79C7F3001707FA02F763
:100E700047EA060646604E683CEA06060BD0C7689D
:100E800056000CFA06F827EA0807D1F8088008FA95
:100E900006F63E43C6600E7906F00306022E11D117
:100EA000D60800EB8607D7F820805607F60E0AFA18
:100EB00006FB28EA0B08D1F810B00BFA06F646EA52
:100EC00008063E62076856000CFA06F827EA08078B
:100ED00091F8048008F0030808FA06F63E4306601D
:100EE0004E6816F4403F69D0266846F48046266076
:100EF000266806F48046009622F0030606F1804735
:100F000007F59837D7F808889607360F0AFA06FBD0
:100F100028EA0B08A0F1804BBBF5003B22D0A0F1E2
:100F2000804BBBF5013B08BF4FF0010B1AD000E02E
:100F300044E0A0F1804BBBF5023B08BF4FF0020B31
:100F400010D0A0F1804BBBF5033B08BF4FF0030B63
:100F500008D0A0F1804BBBF5043B0CBF4FF0040B55
:100F60004FF0070B0BFA06F646EA0806C7F80868C2
:100F70002E684F689E4317F4803F18BF1E432E60B3
:100F8000DEF800604F689E4317F4003F18BF1E4311
:100F9000CEF800600E4F3E68D1F804809E4318F4EE
:100FA000801F18BF1E433E600A4F3E68D1F8048080
:100FB0009E4318F4001F18BF1E433E60521C102AA7
:100FC000FFF432AFBDE8F88F44380240003C0140E6
:100FD000083C01400C3C014001480068704700009B
:100FE0009C0000200B4810B5016841F400710160BD
:100FF000016841F480610160016841F48071016021
:10100000032000F0C1F8002000F006F800F052F8CC
:10101000002010BD003C024000207047134A417878
:1010200011600378111D0A1D002B04BF0020086009
:101030001AD043680B60017BC37A090741EA036158
:10104000837A41EAC341437B41EA8341837B41EA9E
:101050004341C37B41EA0341437A41EA0321037AD6
:10106000007841EA430108431060704798ED00E0C2
:10107000BFF35F8F0448016821F4803101600349A8
:10108000002008607047000024ED00E094ED00E0CF
:10109000064940F0010008600548016841F48031CC
:1010A0000160BFF34F8FBFF36F8F704794ED00E087
:1010B00024ED00E0104881B0016841F080510160EA
:1010C000006800F0805000900C48016841F48041B5
:1010D0000160006800F480400090094801684FF604
:1010E000FF02114041F4407141F0FD7141F0806117
:1010F000016001B0704700004038024044380240AF
:101100000CED00E00028B8BF704700F01F0101227D
:1011100002FA01F14009800000F1E020C0F800115E
:1011200070470000174B10B41B68C3F30223C3F1D0
:10113000070CBCF1040F88BF4FF0040C1C1D072CDA
:1011400034BF0023DB1E012404FA0CFCACF1010CBB
:101150000CEA0101994004FA03F35B1E1A401143A3
:1011600000284FEA0111A1BF00F1E02080F800142F
:1011700010BC704700F00F0000F1E02080F8141D53
:1011800010BC70470CED00E0074900F007000A684A
:101190004FF6FF031A4042EA002040F0FD7040F095
:1011A00080600860704700000CED00E004480549CD
:1011B00000680968044AC1F38221515CC840704745
:1011C000BC00002008380240D074010804480549DA
:1011D00000680968044AC1F34231515CC840704755
:1011E000BC00002008380240D074010890F83C2070
:1011F000012A04BF0220704730B4012380F83C303C
:10120000022280F83D2002685468D2F808C00D68B8
:1012100024F070042C4354600268A2F18044B4F5B9
:10122000803418BFB2F1804F13D0A2F18044B4F5DE
:1012300080641CBFA2F18044B4F5006409D0A2F11F
:101240008044B4F540641CBFA2F18044B4F5A034DE
:1012500005D149682CF0800C41EA0C01916080F8BE
:101260003D30002180F83C1030BC08467047002813
:1012700004BF0120704710B5044690F83D0028B91E
:10128000002084F83C00204600F01EF8022084F87C
:101290003D00211D206805F057FA012084F8460022
:1012A00084F83E0084F83F0084F8400084F8410050
:1012B00084F8420084F8430084F8440084F8450030
:1012C00084F83D00002010BD006881B0A0F180418D
:1012D000B1F540611CBF01B070470548016841F09D
:1012E00008010160006800F00800009001B070473C
:1012F0004038024090F83D1001291CBF0120704782
:10130000022180F83D100068A0F18041B1F58031E4
:1013100018BFB0F1804F13D0A0F18041B1F58061CA
:101320001CBFA0F18041B1F5006109D0A0F180415E
:10133000B1F540611CBFA0F18041B1F5A03104D1ED
:10134000816801F00701062903D0016841F001011D
:1013500001600020704790F83C200023012A0DBF57
:1013600002204FF0010C80F83CC0704770B402229C
:1013700080F83D200268946824F0770424F47F44C8
:1013800094600A68502A43D00CDC202A75D004DC13
:10139000002A18BF102A0FD18BE0302A6DD0402AC6
:1013A0006DD009E0602A4DD0702A0ED0B2F5805F72
:1013B00003D0B2F5005F19D0012380F83DC00021B1
:1013C00080F83C1070BC18467047D1E901450268AE
:1013D000C968966844EA012126F47F4629433143CF
:1013E000916001688A6842F077020FE0D1E9014517
:1013F0000268C968966844EA012126F47F462943B9
:101400003143916001688A6842F480428A60D4E77F
:101410000268CD684C68116A166A26F001061662E9
:10142000966921F00A0126F0F00646EA05152143E7
:101430009561116201688A6822F0700242F05702D9
:101440008A60BAE70268CD684C68116A21F0100121
:1014500011629669116A26F4704646EA053521F054
:10146000A00141EA04119561116201688A6822F0C5
:10147000700242F067028A609FE71AE0FFE70268A5
:101480004C68C968156A166A26F0010616629669E4
:1014900025F00A0526F0F00646EA01112C43916179
:1014A000146201688A6822F0700242F047028A6082
:1014B00083E701688C6824F07004224342F007023D
:1014C0008A607AE7002804BF0120704770B504469F
:1014D00090F83D00002520B984F83C50204600F0EB
:1014E00023F8242084F83D002068C16821F40051CD
:1014F000C160204605F0A6FA2068016921F49041F8
:1015000001612068416921F02A0141612068C168B8
:1015100041F40051C1602564202084F83D0084F826
:101520003E00002070BD00002DE9F04786B0002588
:101530000646009501950295039504950068A0F173
:101540008041B1F588411CBF06B0BDE8F087354841
:10155000016841F400310160006800F4003005903A
:101560003148016841F00101016000684FF007094E
:1015700000F00100CDE9049004274FF00208DFF8E5
:10158000ACA0CDE900780124694603945046FFF7EA
:101590003DFC08200090CDE90184CDE9034969466E
:1015A0005046FFF733FC234C21484FF00069206080
:1015B000C4E901954FF48068C4E903586561A561E9
:1015C000E561256220466562FFF772FB002818BFBF
:1015D000FFF776F9B463A663184C1748C4E900090D
:1015E0004020C4E90205C4E90485A561E561032042
:1015F0002562C4E90970C005C4E90B052046FFF760
:1016000057FB002818BFFFF75BF974630022012124
:101610002620A663FFF786FD2620FFF773FD06B0A0
:10162000BDE8F087403802403038024000000240F8
:10163000886002405C020020A0600240BC020020E2
:101640004FF0000CC0F80CC0C0F810C00129C0E970
:10165000002307D002290FD00122042917D008291E
:101660001ED0FEE704218160124941611249816167
:101670001249C161124908E00221816011494161AA
:10168000114981611149C1611149016270471149D4
:1016900082604161104981611049C1611049F4E7DC
:1016A000104982604161104981611049C16110494E
:1016B000EBE70000FD170108211901086717010871
:1016C00001170108151B0108291C01089B1A0108B4
:1016D000591A0108C91D0108D51E0108791D010804
:1016E0004D1D01086D200108A52101081D200108DC
:1016F000F11F0108016A0847C2691047436918478A
:1017000030B40369D0E9014CE51A0268AC4513DC3A
:1017100002EB030C9CF8005065F307019CF80150A4
:1017200065F30F219CF802509CF803C065F3174144
:101730006CF31F6100290FDC92F800C000236CF3EA
:10174000070192F801C06CF30F2192F802C0D27821
:101750006CF3174162F31F611944A14208BF0021D5
:10176000016130BC7047F0B4D0F810C0D0E901344A
:10177000C56807690026BD4201BF0E600020F0BCAD
:101780007047A3EB0C039C4210DD4FF0000C066188
:1017900003681D7865F307025D7865F30F229D7875
:1017A000DB7865F3174263F31F621FE0036803EB06
:1017B0000C052F7867F307026F7867F30F22AF7875
:1017C000ED7867F3174265F31F62002A0EDC4FF0D5
:1017D000000C06611D7865F307025D7865F30F2242
:1017E0009D78DB7865F3174263F31F62121B0A6072
:1017F00000680CEB0401F0BC084470472DE9F001CF
:10180000C4680569D0E9016C02EB0C03AC42AABFC5
:10181000321B2A1B9542C8BF2A469A42DEBF4FF0B0
:10182000FF30BDE8F0017047321B934213DD944551
:1018300006DC02681444002222706270A270E2701A
:10184000026813701C0A54701C0C94701C0ED47027
:101850006244002409E00268224413701D0A557096
:101860001D0C95701D0ED5706244A3EB0C0CBCF1E1
:10187000070F2EDDCCF100074FEAE77807EB58772A
:101880000125FF107F4222E011F8018B02F8018B45
:1018900011F8018B02F8018B11F8028B02F8028B10
:1018A00011F8018C02F8018C11F8048B02F8048BFA
:1018B00011F8038C02F8038C11F8028C02F8028CE8
:1018C00011F8018C02F8018C6D1CACF1080CAF42D0
:1018D000DADABCF1010F14DDCCF1000707EBD777A2
:1018E00001257F107F420AE011F8018B02F8018B7D
:1018F00011F8018B02F8018B6D1CACF1020CAF42A8
:10190000F2DABCF1000FC4BF09781170E118B142DE
:1019100008BF0021C160BDE8F00100207047000051
:101920002DE9F001C4680669D0E901752B4403F183
:10193000010CB442AABF3B1B331B9E42C8BF3346B7
:101940006345DEBF4FF0FF30BDE8F00170473B1B41
:101950009C451ADD9D4206DC03681C44002323706D
:101960006370A370E370036883F800C04FEA1C241F
:101970005C704FEA1C449C704FEA1C64DC702B4482
:10198000097803F8011B002410E00368234483F85E
:1019900000C04FEA1C265E704FEA1C469E704FEA5C
:1019A0001C66DE702B44097803F8011BACEB0501C3
:1019B000491E07292CDD4E424FEAE67806EB5876A1
:1019C0000125F610764221E012F8018B03F8018B15
:1019D00012F8018B03F8018B12F8028B03F8028BCB
:1019E00012F8018C03F8018C12F8048B03F8048BB5
:1019F00012F8038C03F8038C12F8028C03F8028CA3
:101A000012F8018C03F8018C08396D1CAE42DBDA48
:101A1000012913DD4E4206EBD6760125761076427B
:101A20000AE000BF12F8018B03F8018B12F8018B5A
:101A300003F8018B891E6D1CAE42F3DA0029C4BF86
:101A40001178197004EB0C01B94208BF0021C16084
:101A5000BDE8F0010020704730B40369D0E901C44B
:101A6000ACEB03050268AC4209DC02EB43042588B9
:101A7000648865F30F0164F31F41002906DC1488B4
:101A8000528864F30F01002362F31F41194461453A
:101A900008BF0021016130BC7047F0B40369D0E990
:101AA00001C6C56807690024BD4201BF0C60002063
:101AB000F0BC7047ACEB030C66450CDD0023046101
:101AC000D0F800C0BCF80040BCF802C064F30F02BC
:101AD0006CF31F4215E0D0F800C00CEB43052F88D3
:101AE0006D8867F30F0265F31F42002A09DC0023AB
:101AF0000461BCF80040BCF802C064F30F026CF350
:101B00001F42921B0A6000689919F0BC00EB41006B
:101B1000704700002DE9F001C4680569D0E9016350
:101B200002EB030CAC42AABF321B2A1B9542C8BF72
:101B30002A466245DEBF4FF0FF30BDE8F001704736
:101B4000321B944511DD934205DC026802EB44042C
:101B50000022228062800268A2F800C04FEA1C4482
:101B6000548002EB4302002409E0026802EB4402C5
:101B7000A2F800C04FEA1C45558002EB4302ACEBD3
:101B80000303072B2CDD5F424FEAE77807EB58771A
:101B90000125FF107F4221E031F8028B22F8028BF1
:101BA00031F8028B22F8028B31F8048B22F8048B77
:101BB00031F8028C22F8028C31F8088B22F8088B5D
:101BC00031F8068C22F8068C31F8048C22F8048C4B
:101BD00031F8028C22F8028C083B6D1CAF42DBDA34
:101BE000012B13DD5F4207EBD77701257F107F4282
:101BF0000AE000BF31F8028B22F8028B31F8028B29
:101C000022F8028B9B1E6D1CAF42F3DA002BC4BF7F
:101C10000988118004EB0C01B14208BF0021C160AA
:101C2000BDE8F001002070472DE9F001C4680669A5
:101C3000D0E901752B4403F1010CB442AABF3B1B50
:101C4000331B9E42C8BF33466345DEBF4FF0FF30B3
:101C5000BDE8F00170473B1B9C4514DD9D4205DC4F
:101C6000036803EB44040023238063800368A3F824
:101C700000C04FEA1C445C8003EB4503098823F84D
:101C8000021B00240CE0036803EB4403A3F800C02C
:101C90004FEA1C465E8003EB4503098823F8021BCC
:101CA000ACEB0501491E07292CDD4E424FEAE678D0
:101CB00006EB58760125F610764221E032F8028BC9
:101CC00023F8028B32F8028B23F8028B32F8048B54
:101CD00023F8048B32F8028C23F8028C32F8088B3C
:101CE00023F8088B32F8068C23F8068C32F8048C23
:101CF00023F8048C32F8028C23F8028C08396D1C0E
:101D0000AE42DBDA012913DD4E4206EBD676012521
:101D1000761076420AE000BF32F8028B23F8028B7D
:101D200032F8028B23F8028B891E6D1CAE42F3DA67
:101D30000029C4BF1188198004EB0C01B94208BF07
:101D40000021C160BDE8F0010020704710B40269B5
:101D5000D0E901C3ACEB02040168A34203DC51F8F3
:101D60002230002B01DC0B680022D118614508BF2E
:101D70000021016110BC704770B40269D0E9013CD8
:101D8000C46806690025B44201BF0D60002070BC24
:101D900070479B1A9C4504DD0022056103681B689F
:101DA00007E0046854F82230002B02DC00220561B1
:101DB0002368A3EB0C030B60006870BC02EB0C0102
:101DC00000EB8100704700002DE9F001D0F80CC055
:101DD0000569D0E90163D418AC45AABFA6EB0C0293
:101DE000A5EB0C029542C8BF2A46A242DEBF4FF0C7
:101DF000FF30BDE8F0017047A6EB0C0294420FDD06
:101E0000934206DC026802EB8C024FF0000CC2F831
:101E100000C00268146002EB83024FF0000C05E082
:101E2000026802EB8C02146002EB8302E31A072BB8
:101E30002CDD5F424FEAE77807EB58770125FF106A
:101E40007F4221E051F8048B42F8048B51F8048B57
:101E500042F8048B51F8088B42F8088B51F8048C37
:101E600042F8048C51F8108B42F8108B51F80C8C0E
:101E700042F80C8C51F8088C42F8088C51F8048C0C
:101E800042F8048C083B6D1CAF42DBDA012B13DDFA
:101E90005F4207EBD77701257F107F420AE000BF42
:101EA00051F8048B42F8048B51F8048B42F8048BF0
:101EB0009B1E6D1CAF42F3DA002BC4BF0968116092
:101EC0000CEB0401B14208BF0021C160BDE8F00184
:101ED000002070472DE9F001D0F80CC00669D0E968
:101EE00001752B445C1CB445AABFA7EB0C03A6EB01
:101EF0000C039E42C8BF3346A342DEBF4FF0FF3003
:101F0000BDE8F0017047A7EB0C039C4212DD9D4237
:101F100006DC036803EB8C034FF0000CC3F800C031
:101F200003681C6003EB8503096843F8041B4FF04A
:101F3000000C08E0036803EB8C031C6003EB8503D3
:101F4000096843F8041B611B491E07292CDD4E421A
:101F50004FEAE67806EB58760125F610764221E046
:101F600052F8048B43F8048B52F8048B43F8048B2B
:101F700052F8088B43F8088B52F8048C43F8048C11
:101F800052F8108B43F8108B52F80C8C43F80C8CE1
:101F900052F8088C43F8088C52F8048C43F8048CEF
:101FA00008396D1CAE42DBDA012913DD4E4206EB27
:101FB000D6760125761076420AE000BF52F8048BEF
:101FC00043F8048B52F8048B43F8048B891E6D1C74
:101FD000AE42F3DA0029C4BF116819600CEB0401AA
:101FE000B94208BF0021C160BDE8F0010020704780
:101FF00010B40269D0E901C3ACEB02040168A3424A
:1020000003DC51F83230002B01DC0B680022D118C0
:10201000614508BF0021016110BC704770B40269BE
:10202000D0E9013CC46806690025B44201BF0D60D7
:10203000002070BC70479B1A9C4504DD002205619E
:1020400003681B6807E0046854F83230002B02DC98
:10205000002205612368A3EB0C030B60006870BCD1
:1020600002EB0C0100EBC100704700002DE9F0030A
:10207000D0F80CC00569D0E90163D418AC45AABFFB
:10208000A6EB0C02A5EB0C029542C8BF2A46A24261
:10209000DEBF4FF0FF30BDE8F0037047A6EB0C0247
:1020A00094420EDD934205DC026802EBCC0C002268
:1020B000CCF8002002684FF0000C146002EBC30261
:1020C00005E0026802EBCC02146002EBC302E31AE3
:1020D000072B3EDD5F424FEAE77807EB5877012593
:1020E000FF107F4233E000BFF1E80289C2F80080B0
:1020F000C2F80490F1E80289C2F80880C2F80C9096
:10210000F1E80489C2F81080C2F8149051E90289FC
:10211000C2F81880C2F81C90F1E80889C2F8208043
:10212000C2F8249051E90689C2F82880C2F82C90A0
:1021300051E90489C2F83080C2F8349051E902892B
:10214000C2F83880C2F83C904032083B6D1CAF4268
:10215000CADA012B16DD5F4207EBD77701257F1026
:102160007F420DE0F1E8028942F8048B42F8049BBB
:10217000F1E8028942F8088B42F8049C9B1E6D1C12
:10218000AF42EFDA002B03DDD1E90031136051607B
:102190000CEB0401B14208BF0021C160BDE8F003AF
:1021A000002070472DE9F003D0F80CC00669D0E993
:1021B00001752B445C1CB445AABFA7EB0C03A6EB2E
:1021C0000C039E42C8BF3346A342DEBF4FF0FF3030
:1021D000BDE8F0037047A7EB0C039C4215DD9D4260
:1021E00005DC036803EBCC0C0023CCF8003003685B
:1021F0001C60D1E900C103EBC503C3F800C05960FE
:1022000003F108014FF0000C0BE0036803EBCC0373
:102210001C60D1E9006103EBC5031E60596003F146
:102220000801631B5B1E072B3DDD5E424FEAE6782B
:1022300006EB58760125F610764232E0F2E8028984
:10224000C1F80080C1F80490F2E80289C1F8088062
:10225000C1F80C90F2E80489C1F81080C1F814901C
:1022600052E90289C1F81880C1F81C90F2E8088987
:10227000C1F82080C1F8249052E90689C1F828806D
:10228000C1F82C9052E90489C1F83080C1F834902B
:1022900052E90289C1F83880C1F83C904031083BCE
:1022A0006D1CAE42CADA012B16DD5E4206EBD67615
:1022B0000125761076420DE0F2E8028941F8048BA0
:1022C00041F8049BF2E8028941F8088B41F8049C2C
:1022D0009B1E6D1CAE42EFDA002B03DDD2E900320B
:1022E0000B604A600CEB0401B94208BF0021C160D9
:1022F000BDE8F00300207047002908BF7047F0B424
:10230000D0F808C0012202FA0CF2891A0A6822F0F9
:1023100000434A68CAB1521C02FA0CF28A1A5D1CC8
:1023200005FA0CF4C6680C44A64250D0266826F084
:1023300000477F1C07FA0CFC1768A44417F0004FF5
:102340002ED016F0004F22D010E05C1C04FA0CF2E4
:10235000C5680A44954209D0156825F00046761CE8
:1023600006FA0CFC944415F0004F03D041600B605A
:10237000F0BC70474160126822440A60C068604542
:1023800004BFF0BC7047CCF80420F0BC704741603B
:1023900022682A440A60C0686045F4D1F0BC7047E6
:1023A00016F0004F426005D010682844106060604D
:1023B000F0BC7047116824689B1C214419441160CB
:1023C000C068604518BFCCF80410F0BC7047D2F864
:1023D00000C01CF0004FC9D1426010682844106052
:1023E000F0BC7047002904BF0020704770B403465A
:1023F000D0F808C0012000FA0CF5681E01425C68A4
:1024000021FA0CF018BF401C2246116811F0004F51
:102410002BD1814229D30E1A022E0ED241F0004058
:1024200010605019491C01FA0CF11144DA688A4213
:1024300008BF1968596070BC7047491C01FA0CF15B
:102440008C18411C01FA0CF11144A6F1010CC1E9F0
:1024500000C040F000401060D868A0421CBF08686F
:1024600060605019596070BC704721F00041491CF0
:1024700001FA0CF10A44D968914208BF1A68A242D5
:10248000C3D170BC002070472DE9F00F002783688E
:102490008F60CF600F614F61D0F800C0DCF8004062
:1024A00024F0004214F0004F02FA03F414BF8C60D1
:1024B000CC6002F1010404FA03F414BF0C614C6116
:1024C000DCF80440002C18BF4FF0FF306DD1521CD7
:1024D0009A406244D0F80CC0944518BF6FF00509CB
:1024E0006DD06546944506D26FF00200C1E9000246
:1024F000BDE8F00F7047D2F800A0D2F804802AF0AF
:102500000044B8F1000F16D008F1010C0CFA03FCDE
:10251000661C06FA03FB0BEB0206A2EB0C0CB542A1
:1025200013D07568A54209D06FF00400C1E900021C
:10253000BDE8F00F70476FF00100F7E7DCF80050DE
:1025400025F00045454506D10AE0DCF8005025F0AD
:102550000045454504D0C1E90092BDE8F00F704741
:102560001AF0004F07D08D689C402C448C600C6999
:102570005C440C610BE0DCF8005015F0004F12D009
:10258000CD689C402C44CC604C695C444C61DCF8C8
:102590000040526824F0004494420BD0C1E9009CF2
:1025A000BDE8F00F70476FF00300C1E9000CBDE813
:1025B000F00F7047D0F80CC03246944591D10F60AF
:1025C000BDE8F00F704730B4012303FA02F4082C81
:1025D00000D2FEE71023B3FBF4FC04FB1C3C82603A
:1025E000BCF1000F07D05B1CB3FBF4FC04FB1C3CEC
:1025F000BCF1000FF7D1C518CB1A05601B1B23FADD
:1026000002F245602A600368002201445A60C160FA
:1026100030BC70472DE9F047164605460C46072AA0
:102620002AD9B6F1004F60D27042C11700EB517049
:10263000C010002347429C46781E58BF804614D4E1
:10264000E018411EE8180422B0F1010091F8019051
:1026500080F8019011F8029F00F8029F521EF5D1F8
:1026600008330CF1010CC445EADD784206EBC006E4
:1026700004EBC70405EBC705012E30D9B6F1004FB6
:1026800054D2704200EBD07040104242002A26DD46
:10269000A11EA81E12F0010F05D011F8023F00F88C
:1026A000023F4B784370531012D000BF91F802C024
:1026B00080F802C091F803C080F803C011F804CF7D
:1026C00000F804CF91F801C080F801C05B1EEDD185
:1026D000504206EB400604EB420405EB4205002E97
:1026E0001CBF20782870BDE8F087083E281B002812
:1026F00001DD082805DB082221462846FDF7E5FD17
:102700000FE02078287060786870A078A870E07872
:10271000E8702079287160796871A079A871E079F2
:10272000E87108340835072EDFD8A5E714F8010B47
:1027300005F8010B14F8010BB61E05F8010B012E6C
:10274000F4D8CCE72DE9F047164605460C46072A93
:102750002CD9B6F1004F62D27042C11700EB517014
:10276000C010002347429C46781E58BF804616D4AE
:1027700004EB4300811E05EB43000422B0F102008C
:10278000B1F80290A0F8029031F8049F20F8049F5D
:10279000521EF5D108330CF1010CC445E8DD784236
:1027A00006EBC00604EB071405EB0715012E30D924
:1027B000B6F1004F54D2704200EBD070401042424C
:1027C000002A26DD211F281F12F0010F05D031F845
:1027D000043F20F8043F4B884380531012D000BFC1
:1027E000B1F804C0A0F804C0B1F806C0A0F806C053
:1027F00031F808CF20F808CFB1F802C0A0F802C025
:102800005B1EEDD1504206EB400604EB820405EB63
:102810008205002E1CBF20882880BDE8F087083E76
:10282000281B002801DD082805DB10222146284648
:10283000FDF74BFD0FE02088288060886880A08825
:10284000A880E088E8802089288160896881A08943
:10285000A881E089E88110341035072EDFD8A5E77C
:1028600034F8020B25F8020B34F8020BB61E25F8DB
:10287000020B012EF4D8CCE72DE9F04716460546A9
:102880000C46072A2CD9B6F1004F64D27042C1170A
:1028900000EB5170C010002347429C46781E58BF81
:1028A000804616D404EB8300011F05EB830004224D
:1028B000B0F10400D1F80490C0F8049051F8089FDA
:1028C00040F8089F521EF5D108330CF1010CC445A5
:1028D000E8DD784206EBC00604EB471405EB47152C
:1028E000012E32D9B6F1004F56D2704200EBD070B3
:1028F00040104242002A28DDA4F10801A5F1080099
:1029000012F0010F05D051F8083F40F8083F4B681E
:102910004360531012D000BFD1F808C0C0F808C0FF
:10292000D1F80CC0C0F80CC051F810CF40F810CF4F
:10293000D1F804C0C0F804C05B1EEDD1504206EBD4
:10294000400604EBC20405EBC205002E1CBF206844
:102950002860BDE8F087083E281B002801DD082814
:1029600005DB202221462846FDF7F1FC0FE0206818
:10297000286060686860A068A860E068E860206916
:10298000286160696861A069A861E069E861203434
:102990002035072EDFD8A3E754F8040B45F8040BC5
:1029A00054F8040BB61E45F8040B012EF4D8CCE7FE
:1029B00030B4072A36D9B2F1004F59D253424FEA08
:1029C000E37C03EB5C73DB10C3F1000CBCF1000F84
:1029D000C8BF634626DD00BFF1E80245E0E80245D6
:1029E000F1E80245E0E80245F1E80445E0E8044585
:1029F00051E9024540E90245F1E80845E0E80845AB
:102A000051E9064540E9064551E9044540E90445D8
:102A100051E9024540E902455B1EDDD1CCF10003DE
:102A200002EBC302012A1BD9B2F1004F44D2534238
:102A300003EBD3735B10C3F1000CBCF1000FC8BFF4
:102A400063460DDDF1E80245E0E80245F1E80245A4
:102A5000E0E802455B1EF5D1CCF1000302EB430236
:102A6000002A1CBFD1E90021C0E9002130BC704719
:102A7000F1E8023CE0E8023CF1E8023CE0E8023C1C
:102A8000F1E8043CE0E8043C51E9023C40E9023C46
:102A9000F1E8083CE0E8083C51E9063C40E9063C26
:102AA00051E9043C40E9043C51E9023C40E9023C64
:102AB000083A072ADCD8B5E7F1E8023CE0E8023C36
:102AC000F1E8023CE0E8023C921E012AF4D8C7E794
:102AD00070B50C4684B006460119042201A8FFF720
:102AE00099FD241D311904226846FFF793FD251D29
:102AF0000098002400289CBF04B070BD7119042206
:102B000002A8FFF787FD019841680298884700985E
:102B1000641C2D1DA042F1D804B070BD2DE9FF4109
:102B20000F460A98984601EB800000991646083037
:102B300009688847050004BF04B0BDE8F08100249F
:102B40000A9800280CD900BF009958F82400096899
:102B50008847D8B146F824000A98641C8442F3D30D
:102B6000E81904226946FFF755FD3C1D2819042287
:102B70000AA9FFF74FFD0A99201D8A002844314613
:102B8000FFF748FD04B02846BDE8F0813CB100994C
:102B9000641E496856F824008847002CF7D1009835
:102BA00041682846884704B00020BDE8F081000055
:102BB00010B5094C0020606004F008FA2060074856
:102BC00001684FF480608847A060216800291CBF1D
:102BD000002810BDFEE70000FC000020E0740108A2
:102BE00010B5084C61688142B8BF01466160A268B7
:102BF0000146104602F08AF92068BDE8104000F056
:102C0000ABBE0000FC00002010B5034C206800F0B3
:102C1000F9FDA06810BD0000FC000020F8B50446D6
:102C200016460D46C06800F037FC69462068FEF77E
:102C300063FD10B100992960F8BD002E08BF002186
:102C400009DAE06800F058FB69462068FEF754FD99
:102C50000028EFD1FEE7EED03146E06800F0B0FB8F
:102C600069462068FEF748FD002808BF4FF0FF3195
:102C7000E1D0DFE710B504460068FEF73FFD00280D
:102C800018BF10BDE068BDE8104000F0C5BAD0F82C
:102C900010C060472DE9F84F0446806800904FF05F
:102CA000000865689A4616460F46C1460246964297
:102CB00014DC324629463846FFF7ACFCA8190099C7
:102CC00008EB0605891B00910ABF20686060FEF7CB
:102CD00011FD0098A0602846BDE8F88F002A1ADD93
:102CE00029463846FFF796FC009807448044361A78
:102CF0002068FEF7FFFC002269462046FFF78EFFA2
:102D0000050003D000980028F2D0CFE74046C4F871
:102D10000890BDE8F88F524669462046FFF77EFFCF
:102D2000054608E02068FEF7E5FC002269462046DB
:102D3000FFF774FF05461DB100980028B6D1F1E7F2
:102D40004FF0FF30C4F80890BDE8F88F2DE9F84F38
:102D50000446806800904FF0000865689A46164661
:102D60000F46C1460246964215DC32462946384691
:102D7000FFF7E8FC009905EB4600891B08EB060508
:102D800000910ABF20686060FEF7B4FC0098A06064
:102D90002846BDE8F88F002A1BDD29463846FFF794
:102DA000D1FC009807EB40078044361A2068FEF7F4
:102DB000A1FC002269462046FFF730FF050003D042
:102DC00000980028F2D0CDE74046C4F80890BDE84E
:102DD000F88F524669462046FFF720FF054608E077
:102DE0002068FEF787FC002269462046FFF716FFA1
:102DF00005461DB100980028B4D1F1E74FF0FF302F
:102E0000C4F80890BDE8F88F2DE9F84F04468068B3
:102E100000904FF0000865689A4616460F46C14676
:102E20000246964215DC324629463846FFF724FD15
:102E3000009905EB8600891B08EB060500910ABF87
:102E400020686060FEF756FC0098A0602846BDE848
:102E5000F88F002A1BDD29463846FFF70DFD009844
:102E600007EB80078044361A2068FEF743FC0022F7
:102E700069462046FFF7D2FE050003D000980028DF
:102E8000F2D0CDE74046C4F80890BDE8F88F52462E
:102E900069462046FFF7C2FE054608E02068FEF7B7
:102EA00029FC002269462046FFF7B8FE05461DB101
:102EB00000980028B4D1F1E74FF0FF30C4F8089033
:102EC000BDE8F88F2DE9F84F0446806800904FF078
:102ED000000865689A4616460F46C1460246964265
:102EE00015DC324629463846FFF762FD009905EBAE
:102EF000C600891B08EB060500910ABF20686060C8
:102F0000FEF7F8FB0098A0602846BDE8F88F002A7D
:102F10001BDD29463846FFF74BFD009807EBC0073D
:102F20008044361A2068FEF7E5FB002269462046F9
:102F3000FFF774FE050003D000980028F2D0CDE71B
:102F40004046C4F80890BDE8F88F524669462046CE
:102F5000FFF764FE054608E02068FEF7CBFB002281
:102F600069462046FFF75AFE05461DB10098002825
:102F7000B4D1F1E74FF0FF30C4F80890BDE8F88F06
:102F80000068FFF777BE406801F05EBB0FB42DE923
:102F9000F04385B00EA90D9C0646049100252078CB
:102FA000DFF804812F46002818BF4FF0FF3956D0B4
:102FB00020787B2805D0002851D07055641C6D1CEA
:102FC000F6E7641C22460020217802E014F8011F75
:102FD000401C7D2902D0002941D0F7E7641C00285D
:102FE0003ADD1078442818BF642840D08DF80C00D2
:102FF00002F10101CDF808700A784FF00000034695
:103000002D2A04BF4FF0FF33491C0A78A2F1300C7F
:10301000BCF1090F0CD800BF00EB800002EB4000B0
:1030200011F8012F3038A2F1300CBCF1090FF3D99F
:10303000002B18BF4042D2B22E2A18BF06221DD044
:10304000CDE900029DF80C0058F8203023B170192A
:1030500004AA69469847054420780028A8D1049717
:10306000775505B02846BDE8F0035DF814FB5078AD
:103070008DF80C00911CCDF80890BDE711F8013FC8
:103080000022A3F1300CBCF1090FD9D802EB820267
:1030900003EB420211F8013F303AA3F1300CBCF1CE
:1030A000090FF3D9CCE70000EC740108F0B4584BD9
:1030B0004FF0FF36D3F800C0CCF804604168554D9E
:1030C0004FF08054002261B1CCF80420DCF80C00F1
:1030D00000281CBFCCF80C202C604FF0FF30F0BC57
:1030E00070474660016800297DD0D1F800C0BCF16E
:1030F000010F03D0BCF1030F42D0FEE70A6002606B
:10310000D1F814C08869BCF1000F12BFCCF81800C8
:103110001F68F865002818BFC0F814C00A61186855
:10312000D0F83CC00B6CDCF840709F421BDAD0F842
:1031300040C0CE61BCF1000F11D0466C9E42D8BF9A
:10314000436C43644A61C1F818C0CCF814100164A0
:103150004260C16800291CBFC2602C600DE043645E
:103160004A618A61F3E7CA614A61C1F818C0CCF8C4
:103170001410C1634260C2602C60F0BC0020704734
:103180000A600260D1F814C08869BCF1000F12BF58
:10319000CCF818001F68786538B1C0F814C0D0F8B2
:1031A00048C08F6CBC44C0F848C00A611868D0F8A9
:1031B0003CC00B6CDCF840709F42D4DAD0F840C0C1
:1031C000CE61BCF1000F13D0466C9E42D8BF436C59
:1031D00043644A61C1F818C0CCF81410016442601D
:1031E000C168002900E007E01CBFC2602C60C4E792
:1031F00043644A618A61F1E7CCF80420DCF80C00F2
:1032000000281CBFCCF80C202C600020F0BC7047BC
:10321000EC00002004ED00E0F0B4416800291EBF7E
:103220004FF0FF30F0BC70474FF0FF334360016850
:10323000002919BF0F68002F0020F0BC08BF70479D
:103240004FF001064FF080544FF00002284DDFF898
:10325000A4C0012F02D0032F23D0FEE70A60026032
:10326000DCF80000D0F870C0BCF1000F08D0836516
:103270004168002914BFC3602C600020F0BC704777
:103280000667D0F868C0C66EB44518BF0267EED1B5
:10329000BCF1000F07BF0166836641668266026764
:1032A000E6E70A600260DCF80000D0F884C0BCF1F8
:1032B000000F08D003654168002914BFC3602C606B
:1032C0000020F0BC7047C0F88460D0F87CC0D0F813
:1032D0008060B44518BFC0F88420EBD1BCF1000F6A
:1032E00007BF4167C3678167C267C0F88420E2E710
:1032F00004ED00E0EC0000202DE9F0472E4F0546DC
:103300003868016809684C686968002600293DD161
:103310004FF0FF38C0F804804FF00109C4F8009066
:103320006564C4F810806069A1693868C1634E6142
:10333000026C3AB1096C436C994203DD0664104695
:1033400001F094F83968C86DA0616661002818BF63
:103350004461CC652C60686800281CBF2868002880
:1033600006D026602E603868016F91B1C0F8588091
:103370003868C0F810804660C660104A4FF080512F
:10338000116001690029FCD1686898B16E60BDE8E0
:10339000F087C0F87090816EC26E914218BF0667C8
:1033A000E4D1002907BF0466C0F8688044668666D9
:1033B0000667DDE7FEE70000EC00002004ED00E01A
:1033C0002DE9F047DFF8C88005468946D8F80000A7
:1033D000016809684C6869680026002939D1B9F18B
:1033E000010F50DB4F1E476003202060656427619A
:1033F0006069A069D8F80020D0634661116C39B1CA
:10340000006C536C984203DD1664084601F02EF8F8
:103410004946204600F06CFF2C60686800281CBFFD
:103420002868002807D026602E60D8F80000D0F861
:10343000841099B10765D8F8000007614660C6603E
:10344000144A4FF08051116001690029FCD168686D
:10345000C8B16E604FF00000BDE8F0874FF0010189
:10346000C0F88410C16FD0F88020914218BFC0F816
:103470008460DFD1002907BF4467C7678467C667D8
:10348000C0F88460D7E74FF0FF30BDE8F087000058
:10349000EC00002004ED00E04168002904BF4FF07B
:1034A000FF307047002141600846704703F0BCBA06
:1034B00001460148FEF720BF208300200148006834
:1034C00040697047EC00002010B582B00E4C4FF000
:1034D000FF302168486001A9684600F005FB2068BC
:1034E00000214160C26822B1C16008494FF080509C
:1034F000086000984FF47A714843019902B090FB3C
:10350000F1F0C0F57A7010BDEC00002004ED00E091
:10351000024800680068006840687047EC000020BE
:103520002DE9F14FDFF808B1DFF80881424E4FF086
:10353000FF394FF0805A6FF0010700253268906B19
:10354000002804BF506B002838D0C2F80490906B5C
:103550009563D2F834C055635560D16819B1D56010
:103560003649C1F800A0011E0AD04B6A1BB11946AA
:103570005B6A002BFBD1136B05624B62196210630F
:103580005FEA0C001AD043690760026A416A002AA8
:1035900006BF306801635162002918BF0A62180033
:1035A000F1D15FEA0C0009D0446990F83C1011F0A9
:1035B000010F08BF03F00AFC2000F5D13468606AEF
:1035C000C8B16562206BB0B1D0E90B2E5FEA9E01F5
:1035D0004FF0000308D0D2F800C0491EDC4503D1EB
:1035E000121D5B1C0029F6D159420EEB810141638B
:1035F000406A0028E8D1A169414512DB206B50B137
:1036000082684FF47A735A4392FBF1F2426085600C
:10361000406A0028F4D1206A4068C0F57A70606181
:10362000A561E16900291CBF0098884786E7000072
:1036300078A4EF9D801A0600EC00002004ED00E065
:103640002DE9F8438946804600F066FA882000F0AC
:1036500037FA050008BF00F039FA514E3560002DE9
:1036600000F09A804F48A86200244F482C60E8621E
:10367000326854609460D4601461651E5561946131
:10368000D46154625463946314646F085764D464BF
:103690009464546514659465D4659466D46614671F
:1036A000D467C2F88040C2F884404C2001F0B6FED6
:1036B0003168002808626CD009F1030000F00302B1
:1036C000A0EB0209896A48468847316800280A6ADF
:1036D000D0625AD0896A08208847316800280A6A6F
:1036E00090620A6A4ED04260086A04603068016ADB
:1036F0004D608461016AC1F83090016A0F64006A0C
:103700004FEA99052946C06A02F026F93068434617
:10371000264A006AC06A00903068006A016B6846F9
:1037200000F006FF31680098096A896A086032680B
:103730000021002D166AF06A18BF1D4B08D0D0F882
:1037400000C06D1E9C4503D1001D491C002DF6D103
:103750004842316B01EB80007063116A15A0C860AC
:10376000106A0461106AC461106A4461106A84615D
:10377000106AD0634462106A0462106A1063002009
:10378000BDE8F883C96AD06A88473168086AC96A9F
:1037900088473068FFF78CFE4FF0FF30BDE8F883B4
:1037A000EC0000201D540108ED0801082135010836
:1037B00078A4EF9D3C49444C455F544852454144F0
:1037C0003E0000000A4810B5016841F04041016028
:1037D00000220F210017FDF7A5FC074905480860E6
:1037E00006480168C86B826A05480260086010BD1F
:1037F00034EF00E017010108F8000020EC00002081
:10380000F40000202DE9F05F514F804638680168D0
:1038100009684C684FF0FF39C0F80490D8F80050A0
:10382000DFF830B14FF0805A00267DB1A5421CD19F
:10383000D8F80810491CC8F808104660C16800296B
:103840001CBFC660CBF800A0BDE8F09FC8F80040E0
:10385000206CC8F8040038684660C16800291CBFA5
:10386000C660CBF800A0BDE8F09F01202060C4F83E
:1038700010906069A1693868C1634E61026C3AB109
:10388000096C436C994203DD0664104600F0EEFDBE
:10389000226CD8F80C00002804BF6661A66115D020
:1038A000016C91420FDA816949B10846096C914275
:1038B000F9DB4169A06161618C61446108E0A66146
:1038C0006061846104E06661A0614461C8F80C40F5
:1038D000286C90421BDD2A642869C0B9C5F8109095
:1038E000E86900B33968086C0E6400F0BFFD6869D0
:1038F000A969002806BF3A68D163816148612E61D9
:103900003968C86BEE616E61A8614561CD63386846
:10391000C0F810904660C660CBF800A0016900298D
:10392000FCD1BDE8F09F6869A969002812BF8161D8
:103930003A68D16348613A68106C0028DFD0096C9E
:10394000536C9942C4BF166400F090FDD7E70000A5
:10395000EC00002004ED00E02DE9F05FDFF8588175
:103960000746D8F80000016809684C683968A14228
:1039700018BFBDE8F09FB96800291EBF481EB86097
:10398000BDE8F09F4FF0FF39C0F80490FD68DFF804
:103990002CB100264FF0805A002D2ED07968226C71
:1039A00021648A4251DAC4F81090E169002930D0CC
:1039B000016C0664084600F059FD6069A1690028A1
:1039C00006BFD8F80020D163816148612661D8F82C
:1039D0000000C26B216C136C8B4231DA026CC4F8AC
:1039E0001C90002A28D0436C8B42D8BF416C4164A4
:1039F0006661A2615461046427E03E60D8F800006B
:103A00004660C16800291CBFC660CBF800A0BDE8B5
:103A1000F09F6269A169002A14BF9161C1634A6184
:103A2000026C002AD2D0096C436C9942CEDD066448
:103A3000104600F01BFDC9E741646661A661DAE744
:103A4000E6616661A2615461C4632E603D60286CCA
:103A50007860A869002818BF4661F8602E61D8F820
:103A60000000C26B296C136C8B4219DA026CC5F82A
:103A70001C908AB1436C8B42D8BF416C41646E612B
:103A8000AA61556105644660C16800291CBFC66013
:103A9000CBF800A0BDE8F09F41646E61AE61F1E734
:103AA000EE616E61AA615561C5634660C660CBF880
:103AB00000A0BDE8F09F0000EC00002004ED00E055
:103AC00001460148FEF78EBC2083002000B587B078
:103AD00069460448FEF7D8FC0098002804BF07B0E8
:103AE00000BDFEE72083002030B587B00D460446B8
:103AF00069460848FEF7C8FC009800280CBF4FF440
:103B00000040642028600CBF03980098206007B034
:103B100030BD00002083002003224FF40041014803
:103B2000FEF751BD2083002070B50D4D0646286874
:103B3000816A10208847040008BF70BDF000296822
:103B4000896A8847206028B100206060A060204614
:103B5000E66070BD2868C16A20468847002070BDB5
:103B6000EC00002010B4D0F804C083689C4502BF6C
:103B70004FF0FF3010BC7047D0F800C00CEBC30C06
:103B8000DCF800400C60DCF804101160C168491ECC
:103B900099420CBF0021591C816010BC0020704765
:103BA00010B44368D0F808C06345B8BFACEB030C51
:103BB00002DBC468E41AA444BCF1010FDEBF4FF07D
:103BC000FF3010BC7047D0F800C00CEBC30CCCF831
:103BD0000010CCF80420C168491E99420CBF002196
:103BE000591C416010BC0020704700002DE9F05FB7
:103BF000344F0546924638688B4600680068446832
:103C00004FF0FF38C5F80480A868FFF7ABFF002825
:103C100008BFBDE8F09F3868C0F804804FF0010984
:103C2000C4F800906564C4F810806069A1693868C0
:103C3000C16300264E61026C3AB1096C436C994233
:103C400003DD0664104600F011FC3968C86DA06100
:103C50006661002818BF4461CC652C60686848B96B
:103C6000286838B126602E603868016FC1B100BF86
:103C7000C0F858803868C0F810804660C660124AA4
:103C80004FF08051116001690029FCD1524659461C
:103C9000A868FFF767FF002808BFBDE8F09FFEE7B0
:103CA000C0F87090816EC26E914218BF0667DFD176
:103CB000002907BF0466C0F8688044668666066708
:103CC000D8E70000EC00002004ED00E02DE9F04111
:103CD00006464A4C4FF0FF3520684560B068FFF754
:103CE0005FFFDFF81CC14FF08053002258B12068FD
:103CF0004260C16800291CBFC260CCF800304FF0A0
:103D0000FF30BDE8F0817260316800296AD0086830
:103D1000012802D0032837D0FEE70A6032604E69DE
:103D20008869002E12BFB0612768F865002818BFA7
:103D300046610A612068C66B0C6C376CA74217DAC3
:103D4000066CCD6186B1456CA542D8BF446C446415
:103D50004A618E61716101644260C16800291CBFC3
:103D6000C260CCF800300CE044644A618A61F2E73A
:103D7000CA614A618E617161C1634260C260CCF800
:103D800000300020BDE8F0810A6032604E69886929
:103D9000002E12BFB0612768786520B14661866C3D
:103DA0008F6C3E4486640A612068C66B0C6C376C6D
:103DB000A742DDDA066CCD6186B1456CA542D8BF5D
:103DC000446C44644A618E61716101644260C168FF
:103DD00000291CBFC260CCF80030D2E744644A61BD
:103DE0008A61F2E720684260C16800291CBFC26096
:103DF000CCF800300020BDE8F0810000EC0000208D
:103E000004ED00E02DE9F001DB4C20684168002959
:103E100040F0AE818C46C0F810C04B1E8360816CB0
:103E2000076D51EA070273D0002931D0C0F848C0AD
:103E3000C16C61B30A6852BB8A69002A18BFC2F814
:103E400014C0C1F810C0C66B0D6CD6F84080A845F0
:103E500014DA066CCB615EB1D0F84480A845D8BFB7
:103E6000456C4564C1F814C08E61716101640CE059
:103E70004564C1F814C0C1F818C0F7E7C1F81CC008
:103E8000C1F814C08E617161C1631100D2D1C164E7
:103E9000002F6BD0C0F850C0416D002937D00A68A0
:103EA0004AB1416500291CBF896900295ED08A6931
:103EB0000D6875B358E08A692AB1956C8E6C3544EB
:103EC0009564C2F814C0C1F810C0C66B0D6C376C95
:103ED000AF4213DA066CCB6156B1476CAF42D8BF24
:103EE000456C4564C1F814C08E61716101640CE0D9
:103EF0004564C1F814C0C1F818C0F7E7C1F81CC088
:103F0000C1F814C08E617161C1631100C7D14165F0
:103F10002CE0FFE74D69AA6122B1966C8F6C3E449C
:103F200096645561C1F810C0C66B0D6C376CAF421A
:103F300013DA066CCB6156B1476CAF42D8BF456C03
:103F40004564C1F814C08E61716101640CE0456480
:103F5000C1F814C0C1F818C0F7E7C1F81CC0C1F817
:103F600014C08E617161C1631100A0D1C26FD0F81D
:103F700080108A4237D0002907BF416FC0F88030D7
:103F8000816FC0F880C00A69FAB18A694D69002D55
:103F90000CBF4265AA6122B1966C8F6C3E44966458
:103FA0005561C1F810C0C26B0D6C166CAE4213DACD
:103FB000026CCB6152B1466CAE42D8BF456C4564D1
:103FC000C1F814C08A61516101640CE04564C1F814
:103FD00014C0C1F818C0F7E7C1F81CC0C1F814C07C
:103FE0008A615161C163C0F808C0816D002963D046
:103FF000C0F858C0C16DA1B30A684AB1C1650029B3
:104000001CBF8969002957D08A690D685DB351E0EA
:104010008A69002A18BFC2F814C0C1F810C0C66B64
:104020000D6C376CAF4213DA066CCB6156B1476C3E
:10403000AF42D8BF456C4564C1F814C08E61716150
:1040400001640CE04564C1F814C0C1F818C0F7E77A
:10405000C1F81CC0C1F814C08E617161C163110048
:10406000CAD1C16528E04D69AA61002A18BF55610F
:10407000C1F810C0C66B0D6C376CAF4213DA066C1A
:10408000CB6156B1476CAF42D8BF456C4564C1F8AF
:1040900014C08E61716101640CE04564C1F814C004
:1040A000C1F818C0F7E7C1F81CC0C1F814C08E6190
:1040B0007161C1631100A7D1826EC16E8A4233D093
:1040C000002907BF016EC366416EC0F86CC00A6963
:1040D00052B38D694A69002A0CBFC5659561002DF0
:1040E00018BF6A61C1F810C0C56B0A6C2E6C96428D
:1040F00013DA056CCB6155B1466C9642D8BF426C61
:104100004264C1F814C08D61696101640CE04264CD
:10411000C1F814C0C1F818C0F7E7C1F81CC0C1F855
:1041200014C08D616961C163016809684D68D0F888
:104130003CC065451CD0826910498A420ADA1049A0
:104140000968104F3E6839608E1B91198161A9681A
:104150003144A9600068DCF8281001602068016A19
:104160008C4508BF43624FF0FF30BDE8F001704757
:10417000BDE8F00100207047EC000020801A060026
:10418000240C0040F000002001490968C861704714
:10419000EC0000202DE9F0410D4607461E46104672
:1041A000069902F07FFF041E08BFBDE8F081394682
:1041B0006FF000402A46864203D0206810F1020FBB
:1041C00005D0204602F002FE0020BDE8F081204626
:1041D00000F0C2FE00223146204602F009FB2046D4
:1041E000BDE8F0812DE9F0410E4607461D46104618
:1041F000069902F057FF040008BFBDE8F081394678
:104200002068324610F1020F204604D002F0DEFD95
:104210000020BDE8F08100F09FFE042229462046E0
:1042200002F0E6FA2046BDE8F0812DE9F0410E46A5
:1042300007461D461046069902F034FF040008BFE9
:10424000BDE8F08139462068324610F1020F204661
:1042500004D002F0BBFD0020BDE8F08100F07CFE40
:1042600003222946204602F0C3FA2046BDE8F08129
:10427000FFF7A8FA00210448FFF718F903494FF0A7
:1042800080500860FEE700005945010804ED00E099
:10429000164A30B41468E26C0025A2B1E26C002327
:1042A000EAB100BFD2F844C08C4512DD4164ACEBEA
:1042B00001015164436182615061002B0CBFE064D5
:1042C000986130BC7047416485614561E06430BCF1
:1042D000704713469269A1EB0C01002AE2D14164B8
:1042E00043618561986130BC70470000EC0000209C
:1042F000164A30B41468626D0025A2B1626D0023C5
:10430000EAB100BFD2F848C08C4512DD8164ACEB45
:1043100001019164436182615061002B0CBF6065B3
:10432000986130BC7047816485614561606530BCCF
:10433000704713469269A1EB0C01002AE2D1816417
:1043400043618561986130BC70470000EC0000203B
:10435000124D29680A6812685468A0634FF0FF3054
:104360004860206020616069A2692968CA630026EC
:104370005661086C30B1126C4B6C9A42C4BF0E642B
:1043800000F074F82868416B616144634660C66060
:1043900003494FF080500860FEE70000EC00002069
:1043A00004ED00E0002808BF704770B50A4D4FF0DB
:1043B000FF312A68516029684469C96A884720002A
:1043C000F9D1286800214160C26822B1C160034967
:1043D0004FF08050086070BDEC00002004ED00E05C
:1043E0002DE9F04100271F4E791E30684160056BB2
:1043F0004FF00008002D25D116E01CB33068816A0B
:1044000018208847606104461CB3C4F81480E8682B
:1044100060606868A060286C2060686BE060286B52
:1044200020616D6A002DE8D13068C0F80480C16851
:1044300029B1C0F80C800C494FF080500860384614
:10444000BDE8F0813068816A1820884707463C46FD
:10445000DAE73800E8D031684769C96A8847380028
:10446000F9D1E1E7EC00002004ED00E070B413495D
:104470000E68F36B002818BF00251BD0C561846946
:10448000026C196C91420FDA996961B1D1F840C0A0
:10449000944505DB4A69816142619061486107E0AA
:1044A00089690029F2D1FEE74561836158610346BD
:1044B0002000E3D1F36370BC70470000EC000020E3
:1044C0002DE9F041184DB0F100082868016809682D
:1044D0004C68D8BFBDE8F0814FF0FF37476002203D
:1044E000206027616069A2692868C263002656615E
:1044F000016C39B1126C436C9A4203DD06640846C4
:10450000FFF7B4FF41462046FFF7C2FE2868076167
:104510004660C660054A4FF080511160016900296C
:10452000FCD1BDE8F0810000EC00002004ED00E0CB
:10453000D0F800C061446FF0020C41E909C3054B9B
:1045400041E903324FF0807241F8042C4439016094
:1045500070470000ED670108DFF8E4C030B4DCF814
:10456000000000234168002907BF8168002930BC92
:104570007047C16C4FF0FF344FF00000A9B14A6C96
:10458000022AA4BF521E4A640FDA4864086089698F
:1045900031B14A6C012A03DA086089690029F8D12F
:1045A000DCF800108C644FF0FF33DCF80010496D2C
:1045B00000293AD08A6C022AA4BF501E886434DADB
:1045C000886408604A6C1060DCF80020D2F88430FF
:1045D000002B18BF4FF0FF330DD0896901B38A6CEF
:1045E000012A1DDA08604A6C106089694FF0FF33B8
:1045F0000029F4D115E00123C2F88430D36FD2F83A
:104600008050AB4218BF4FF0FF3306D1002B07BFDD
:104610005167D4679167D0670023C2F88400DCE754
:104620003BB1DCF80000046503E0002B04BF30BCA4
:1046300070474FF080500349086030BC704700005D
:10464000EC00002004ED00E000210160C069FEF7ED
:10465000E3BDF8B504464FF0FF37606828B310217A
:10466000E068FEF7ADFE0028F7D16946A068FDF7C7
:1046700043F80028F1D0009E002E0FDD0546E069CA
:10468000FEF70AFF206800281CBFE069FEF734FE31
:104690002760D4E90803324629469847A068FDF709
:1046A00029F82069FEF702FDDFE7A069FEF7FEFCAE
:1046B0000020F8BD2DE9F047044640681D469146AC
:1046C0008A46B8B12069FEF7E7FE4A465146A0681F
:1046D000FDF714F8002847D0002D18D02ADA2069F9
:1046E000FEF70AFE4A465146A068FDF707F8002883
:1046F000F5D139E0E069FEF7CFFE206888B1002DE2
:1047000018BFE06903D006DAFEF7F6FD09E04FF0C6
:10471000FF30BDE8F0872946FEF752FE20680028EA
:10472000F5D14FF0FF302060D4E908034A465146E6
:1047300098471CE00F4ED6F8008031684FF0FF30EC
:10474000A1EB08070CE0E91B2069FEF739FE306891
:104750004A46A0EB08075146A068FCF7CFFF18B106
:10476000AF42F0DB0028D2D1E068FEF79FFC0020CA
:10477000BDE8F0879C0000200FB42DE9F04F85B014
:1047800007460F9D10A8049000262878DFF8308196
:10479000B14600281CBF4FF0FF3B4FF0490A7DD0C7
:1047A0002878252805D0002878D0B8556D1C761CAF
:1047B000F6E76D1C2C460121287802E015F8010F60
:1047C000491C58F8202072B310F0FF0F6ED06D1CFA
:1047D000002967DD002120786B468C462D2804BF18
:1047E0004FF0FF3C641C2078A0F13002092A0BD85E
:1047F00001EB810100EB4100A0F1300114F8010F41
:10480000A0F13002092AF3D9BCF1000F18BF4942C8
:10481000C0B22E2818BF06220CD000BFCDE900126E
:104820000021207821E0FFE7442818BF6428CED07B
:10483000A0B3C3E714F8010F4FF00002A0F1300C51
:10484000BCF1090FEAD800BF02EB820200EB420084
:10485000A0F1300214F8010FA0F1300CBCF1090FE7
:10486000F2D9DBE714F8010F491C4C2818BF6C285B
:10487000F8D00129CCBFCDF808B0CDF80890442875
:1048800016BF642883F80CA018739DF80C0058F824
:1048900020303BB107EB060004AA00E006E06946C1
:1048A00098470644287800287FF47AAFCDF8109016
:1048B00007F8069005B03046BDE8F00F5DF814FB30
:1048C000EC7401080A4601460148FCF72DF9FEE7A1
:1048D000080100202DE9F04F01600A6812F0010F75
:1048E00008D00A6822F001020A600268116811F01B
:1048F000010FFBD19B4C016820221023DFF8689246
:10490000DFF868A24FF0080CA1420CD1C0E9032CDB
:104910000422C0E905320122C261954A4262C0E91F
:10492000019A00F0BAB8934EF414B1420DD10A15B1
:1049300042614A15C0E903428A1582614022C26180
:104940008D4A4262C0E9019AA7E08C4F4FF40025DE
:10495000B9420DD1AA00C2605210C0E904529210AF
:1049600082619210C261864A4262C0E9019A94E073
:10497000DFF810B24FF0006677104FF0007859451D
:1049800009D1F210C0E905729210C2617E4A4262FA
:10499000C0E903687FE0DFF8F4B1DFF8F491DFF8F5
:1049A000F4A159450BD1C0E9032C0422C0E905321A
:1049B0000122C261784A4262C0E9019A6DE0DFF8E3
:1049C000DCB159450ED14FF4806242615210C0E90A
:1049D0000342521082614022C261714A4262C0E9C0
:1049E000019A5AE0DFF8BCB159450ED14FF40012DC
:1049F000C2605210C0E90452921082619210C261EA
:104A0000694A4262C0E9019A47E0DFF8A0B159451E
:104A10000AD14FF08072C0E905729210C261644AF7
:104A20004262C0E9036836E0DFF888B1DFF88891B8
:104A3000DFF888A159450BD1C0E9032C0422C0E955
:104A400005320122C2615E4A4262C0E9019A24E055
:104A5000DFF870B159450ED14FF4806242615210B7
:104A6000C0E90342521082614022C261564A42624A
:104A7000C0E9019A11E0DFF854B1594525D14FF44E
:104A80000012C2605210C0E904529210826192106A
:104A9000C2614F4A46E0C0E9019A4369C268D0F852
:104AA00018C01A43036943EA0C031A43C3691A4343
:104AB00002620A6822F01E020A600068416921F061
:104AC000800141610020BDE8F08FDFF808B1594551
:104AD0000AD14FF08072C0E905729210C2613E4A5D
:104AE0004262C0E90368D6E7DFF8F0B0DFF8F09083
:104AF000DFF8F0A0594508D1C0E9032C0422C0E931
:104B000005320122C261384A0CE0384B99420BD180
:104B10000A1542614A15C0E903428A1582614022A2
:104B2000C261334A4262B6E7324B99420BD14FF42D
:104B30000012C2605210C0E90452921082619210B9
:104B4000C2612D4AEEE72D4B99420AD14FF0807297
:104B5000C0E905729210C261294A4262C0E9036845
:104B600099E7FEE7106002400060024008600240E2
:104B70009506010828600240AD0601084060024029
:104B8000C506010858600240DD0601087060024059
:104B9000046002400C600240F50601088860024093
:104BA0000D070108A060024025070108B860024017
:104BB0003D0701081064024000640240086402409E
:104BC00055070108286402406D070108406402404F
:104BD00085070108586402409D070108706402407F
:104BE000046402400C640240B50701088864024076
:104BF000CD070108A0640240E5070108B86402403F
:104C0000FD07010830B401680A6812F0100F04BFF4
:104C100030BC70470979816809680A6822F001028E
:104C20000A6081680A6A89680A608168D0F818C0D9
:104C30000B685968ACEB0102016AD1B14469DC60D0
:104C400004EB0C0100230362D0F808C08369DCF890
:104C500000C0CCF8043083681B68D3F800C04CF067
:104C6000010CC3F800C0436BD0F830C030BC18460C
:104C7000604741698C44C3F80CC04FF0FF33E2E752
:104C80000360D1F800C01B1DCCF808300368D2F8CF
:104C900000C01B1DCCF808300368D3F80CC02CF4FE
:104CA000005CC3F80CC00368D3F80CC02CF4F87C8B
:104CB000C3F80CC00368D3F810C02CF0600CC3F824
:104CC00010C00368D3F814C02CF0010CC3F814C052
:104CD000C0E901120021C161704700002DE9F041D7
:104CE0000446DDE90606DDE908C5E769002F18BFBF
:104CF000BDE8F0814FF0FF37E76100272762656369
:104D0000E662C4F830C000EBD0704010C4E9053052
:104D1000C4E90312A0680068C360A168A0690968BB
:104D2000486060682146426A0F48904760680068A2
:104D3000016841F010010160A0680068016841F05D
:104D4000010101602068416941F0C00141612068B2
:104D5000C16841F01001C1602068C16841F4005190
:104D6000C160BDE8F0810000E94D01082DE9F04186
:104D70001500044621D0A068C2688068026060689F
:104D80000068026812F0010FFBD126690F46002D62
:104D9000D8BFBDE8F081E168C1606068B5420068D5
:104DA00010DD466032463946E068FDF733FCBFF35C
:104DB0005F8FB8196062A81B0DE0606BE16ABDE807
:104DC000F041084745602A463946E068FDF722FC75
:104DD000BFF35F8F0020A06260680068016841F047
:104DE00001010160BDE8F0812DE9F0410446406811
:104DF00041680A68C1680A4208BFBDE8F08180685E
:104E0000016060680068016811F0010FFBD1676AFA
:104E1000A66A2569002E23DDE168C1606068AE42A4
:104E200000680BDD45602A463946E068FDF7F2FB75
:104E3000BFF35F8F78196062701B08E046603246EE
:104E40003946E068FDF7E6FBBFF35F8F0020A06204
:104E500060680068016841F001010160BDE8F0810F
:104E6000606BE16ABDE8F0410847000010B5074CEF
:104E70000020A06002F0AAF8206002F0A7F86060AD
:104E8000216800291CBF002810BDFEE7C0000020DB
:104E90002DE9F041114D06460C46A868002804BFD4
:104EA0004FF0FF30BDE8F0816868FEF7ABFCDFF83B
:104EB000308000BFD8F800003146224680681023B9
:104EC0000068FDF7E4FE070002D5A8680028F1D1CC
:104ED0006868FEF741FD3846BDE8F081C00000205B
:104EE000E400002010B5084CA0606068FEF78AFC62
:104EF0002068FEF787FC2068FEF72EFD6068BDE89D
:104F00001040FEF729BD0000C00000202DE9F0414F
:104F10000E4D06460C46A868002808BFBDE8F08183
:104F20002868FEF76FFC0A4F314622463868102386
:104F300080684068FFF7BEFB00281CBFA8680028F7
:104F4000F2D12868BDE8F041FEF706BDC0000020A0
:104F5000E400002070470000F8B50446C06A0E4621
:104F60000090216B1546890800F0F6FC2B4632466E
:104F70006846216BFFF7DCFAA16A00984FF0000247
:104F80000860D4E90B1C5FEA9C0018BF074B07D0F0
:104F90000D68401E9D4203D1091D521C0028F7D107
:104FA00050420CEB80006063F8BD000078A4EF9DD8
:104FB000164882B0016841F001010160144801689F
:104FC00021F4401141F480110160416821F48061B5
:104FD0004160816821F440118160C16821F4401171
:104FE000C1600C4D4FF48036012401AA69466868FF
:104FF000FEF7FCFD00994B69019A04FA02F00342A6
:1050000018BF06FA02F08861EFE70000303802406E
:10501000000002400000002070B51548016841F012
:1050200001010160134C206820F4402040F48020EE
:105030002060606820F400706060A06820F4402068
:10504000A060E06820F44020E0600A254FF4FA7088
:105050006D1EFFF735FA606910F4007F14BF4FF042
:1050600000704FF40070A061002DEFDC002070BDD7
:10507000303802400000024070B584B00024009433
:10508000019402940394FBF7F3FF042001258DF8AB
:1050900008008DF809408DF80A5006208DF8005060
:1050A0008DF80B008DF80140019468460394FBF7DE
:1050B000B5FFE806019012208DF808008DF80C402D
:1050C0008DF809408DF80D408DF800508DF80A409C
:1050D00003268DF80E508DF801508DF80B608DF879
:1050E0000F406846FBF79AFF8DF8005002208DF8BC
:1050F00001000007019010208DF808008DF809408C
:105100008DF80A508DF80B6068460394FBF786FF14
:105110000420FBF7BDFF04B070BD00000B4810B5C4
:10512000016841F400110160002201211020FBF709
:10513000F9FF1020FBF7E6FF002201211120FBF709
:10514000F1FFBDE810401120FBF7DCBF3038024012
:105150003348016841F080010160016841F00101BC
:105160000160016841F0020101602E48016821F4EC
:1051700040210160011D0A6822F400720A600A1DC4
:10518000136823F440231360131DD3F800C02CF4DC
:10519000402C4CF4802CC3F800C0D0F800C02CF494
:1051A000405CC0F800C0D1F800C02CF0400CC1F841
:1051B00000C0D2F800C02CF4405CC2F800C0D3F8A4
:1051C00000C02CF4405C4CF4805CC3F800C0D0F804
:1051D00000C02CF4403CC0F800C0086820F4807087
:1051E0000860106820F440301060186820F44030E7
:1051F00040F4803018600C48016821F00301016020
:10520000416821F001014160816821F00301816062
:10521000C16821F0030141F00101C1607047000045
:1052200030380240000402400000024010B586B051
:1052300000241748009401940294039404941349A1
:10524000059401605F21C0E90114611EC0E90314E7
:105250008461FCF70CF8002818BFFBF731FB4FF412
:105260008050009069460A48FCF775F8002818BF7E
:10527000FBF726FB049404A905480594FBF7B6FF49
:10528000002818BFFBF71CFB06B010BD000C004047
:10529000D00100202DE9F0474B4C8EB049482060EA
:1052A0004FF4E1300027C4E901070C20E760C4E9AE
:1052B0000470A7612046E761FCF704F9002818BFD5
:1052C000FBF7FEFA414D382029688847404E306090
:1052D000296828208847DFF8FC90C9F80000296871
:1052E00028208847DFF8F080C8F8000031680029DE
:1052F0001EBFD9F80020002A002853D0374801F0FB
:105300001FFC606B0168D9F80000FFF7E3FAA06B9F
:105310000168D8F80000FFF7DDFA2368D8F800200C
:10532000D9F800103068FFF7ABFCD6F80080274EA4
:105330004FF4805AD146316810208847040038D095
:1053400029684FF4C0608847606000282ED0012093
:10535000CDE9040A801ECDE906094FF400700890DB
:1053600047F6FF7009901E480A901E483146CDE965
:105370000B8004A801F0CEFDA060A0B1C4F80080AD
:10538000E6601A4A18494FF48063CDE90210CDE96E
:10539000003263684FF4007203F580614046FFF706
:1053A0009DFC07E0FEE769686068884771682046F1
:1053B00088473C460E48002C04601CBF0EB0BDE878
:1053C000F087FEE70044004018020020E074010866
:1053D000D8000020DC000020E0000020054C01087F
:1053E000F46B01086D4D0108812F0108872F01081A
:1053F000E400002070B5074C05462068FEF702FA6D
:1054000029460548FCF7EEFF05462068FEF7A4FA9A
:10541000284670BDE80000202003002010B5FEF7EC
:105420004FFB040008BFFEF751FB204610BD0000F3
:105430000A4601460148FBF777FBFEE7080100201A
:10544000AFF3008010B503224FF400410348FDF78D
:10545000BAF801F0BBFD0249086010BD200300202E
:10546000E8000020704700000149486809680847C3
:10547000AC00002009490028086814BF40F0806093
:1054800020F08060086004D0086810F0006FFBD046
:105490007047086810F0006FFBD170470038024079
:1054A000DFF85CC0DCF800C01CF0807F18BF7047DC
:1054B000022A08BF00220BD0042A08BF012207D00D
:1054C000062A08BF022203D0082A0CBF0322704715
:1054D00000F03F0047F6FF7C0CEA811108434FF4CF
:1054E000403101EA024108434FF0706101EA036173
:1054F000014304480268044B1A401143016070479D
:1055000000380240043802400080FCF009490028BD
:10551000086814BF40F0807020F08070086004D0EC
:10552000086810F0007FFBD07047086810F0007F1B
:10553000FBD170470038024010B500F01BF80C4C4E
:105540002068FEF75FF9FFF703FEFFF779FFFFF72B
:10555000E5FDFFF79FFEFFF789FC4FF0FF30FFF7F7
:10556000C1FCFDF725FB2068BDE81040FEF7F4B94B
:10557000D000002010B501F029FD054C206001F09D
:1055800025FD606001F022FDA0600020E06010BDFC
:10559000CC00002008B5FFF76FFDFBF723FD0022CC
:1055A0001146501FFBF7BEFD01F084F82748016843
:1055B00041F0805101602648016841F4404101609A
:1055C0002448016841F480010160022002460090F5
:1055D0000423C0211920FFF763FF0120FFF796FF86
:1055E0001D49086820F44F6020F4704040F480505A
:1055F00008601A48026822F0070242F003020260C3
:10560000026842F4E0620260086820F0030040F0A3
:1056100002000860086800F00C000828FAD1114A5E
:105620000F48114B10604FF080721A600A6822F424
:1056300000020A6000220D4901F0D0F9FFF7F6FDE3
:10564000BDE808400A48FBF755BE0000403802405C
:10565000007000400438024008380240003C02401C
:1056600000D8B805BC0000208C380240D573010872
:10567000D00100202DED048BAAB04FF0800BDFF895
:105680001CA2F2EE048A9FED868ADFF8189204AC21
:1056900001212046FFF7FCFB0028F8DD9DF81000F3
:1056A0002028F4D1594604A8FFF7F2FB0028EEDDCC
:1056B000012221467CA301280DDB00BF93F800C026
:1056C000BCF1000F6BD00D78AC4568D1491C521C61
:1056D0005B1C8242F2DDDAF8081024A88847DDE975
:1056E0002810084400EE100AF8EE400A9DED270A43
:1056F000B8EE400A20EE081A81EE200A38EE400A81
:1057000010EE100A01F06EFE41EC190BFDF77CFA69
:10571000DDE928210A44249B27990093CDE9011251
:1057200053EC192B6449FDF731FCFDF759FAFDF7ED
:10573000CBFE00EE100AF8EEC00A80EEA80A10EECA
:10574000100A01F04FFE41EC190BFDF75DFA53EC26
:10575000192B5AA1FDF71AFCFDF742FAFDF7D8FE06
:10576000446BFDF751FA22465CA1FDF70FFCFDF7F3
:1057700037FAFDF7A3FE00EE100AF8EEC00A80EE3D
:10578000A80A10EE100A01F02DFE41EC190BFDF7EE
:105790003BFA53EC192B57A1FDF7F8FB7BE02246AF
:1057A0005AA300280EDD4FF0010C01280ADB1978FE
